:020000020000FC
:100000000C942A000C94F1000C94F2000C94F30070
:100010000C94F4000C94F5000C94F6000C94F7008A
:100020000C94F8000C94F9000C94FA000C94FB006A
:100030000C94FC000C94FD000C94FE000C94FF004A
:100040000C9400010C9401010C9402010C94030126
:100050000C94040104E00EBF0FE50DBF0EE00ABBD7
:100060000FEF07BB04BB01BBACD018BB25BB32BB39
:100070000DEF0BBB00000000CC9B21C0CD9B31C01D
:10008000CE9B41C0CF9B51C0D99ADA9800000000A6
:10009000CC9B1BC0CD9B2BC0CE9B3BC0CF9B4BC0F2
:1000A000DA9ADB9800000000CC9B15C0CD9B25C0E0
:1000B000CE9B35C0CF9B45C0C89B83D0D6CF51E0E7
:1000C00085D0CC9BFECF82D042C052E07FD0CC9B6B
:1000D000FECF7CD03CC053E079D0CC9BFECF76D015
:1000E00036C054E073D0CD9BFECF70D030C055E009
:1000F0006DD0CD9BFECF6AD02AC056E067D0CD9B95
:10010000FECF64D024C057E061D0CE9BFECF5ED03E
:100110001EC058E05BD0CE9BFECF58D018C059E02F
:1001200055D0CE9BFECF52D012C050E04FD0CF9BC7
:10013000FECF4CD01CC0552749D0CF9BFECF46D018
:1001400006C051E043D0CF9BFECF40D010C040FD51
:10015000252B43FD352B529541FD252B44FD352B99
:1001600044FD0AD042FD469545FF440F7ECF42FF35
:100170007CCF652F440F79CF722F72957F70832FBC
:1001800082958F70922F9F70A32FAF7060FF09D060
:1001900060FD0FD09295907F1127172B192B129588
:1001A0000895780F7A3014F49A0F089593957A5041
:1001B000FBCF781B12F09A1B08959A950AE0700FF6
:1001C000FACF11272227332741E00895F7E9E6E027
:1001D000D2E9DA95F1F7EA95D9F7FA95C1F7000077
:1001E00008951895189518951895189518951895B7
:1001F0001895189518951895189518951895189597
:0A0200001895189518951895189593
:00000001FF
