:100000000C942A000C9434000C9434000C943400AA
:100010000C9434000C9434000C9434000C94340090
:100020000C9434000C9434000C9434000C94340080
:100030000C9434000C9434000C9434000C94340070
:100040000C9434000C9434000C9434000C94340060
:100050000C94340011241FBECFE5D4E0DEBFCDBF29
:100060000E944D000C9480000C94000027E6820250
:10007000212D11242595259587FD2395322F330FAA
:10008000932F990F990F930F891B982F30E19302AB
:10009000C0011124822B85BB08958EE78ABB8FEFA8
:1000A0008BBB84BB15BAC0E0C89914C083ED90E344
:1000B0000197F1F700C00000C89BFECF83ED90E3ED
:1000C0000197F1F700C00000C3360CF4CF5F8C2F0E
:1000D0000E943600CF99E8CF83ED90E30197F1F7C6
:1000E00000C00000CF9BFECF83ED90E30197F1F7B6
:1000F00000C00000C111C1508C2F0E943600D4CF27
:04010000F894FFCFA1
:00000001FF
