:100000000C942A000C9447000C9447000C94470071
:100010000C9447000C9447000C9447000C94470044
:100020000C9447000C9447000C9447000C94470034
:100030000C9447000C9447000C9447000C94470024
:100040000C9447000C9447000C942B020C9447002E
:100050000C94470011241FBECFE5D4E0DEBFCDBF16
:1000600010E0A0E6B0E0EAE4FCE002C005900D92EA
:10007000AC3BB107D9F720E0ACEBB0E001C01D927A
:10008000AD3DB207E1F70E9480020C9423060C9468
:100090000000FC01408121E030E002C0220F331F4C
:1000A0006A95E2F7242B20830895FC01908121E0DA
:1000B00030E002C0220F331F6A95E2F72095292312
:1000C000208308958BBB64E070E08BE390E00E9496
:1000D000550066E070E08BE390E00E94550067E019
:1000E00070E08BE390E00E94490083EC99E0019777
:1000F000F1F700C0000067E070E08BE390E00E9441
:10010000550008958AB3807F8ABB64E070E08BE37A
:1001100090E00E94550066E070E08BE390E00E9462
:10012000490067E070E08BE390E00E94490083ECB7
:1001300099E00197F1F700C0000067E070E08BE301
:1001400090E00E945500CB9917C093E09A95F1F783
:10015000000067E070E08BE390E00E94490083ECD0
:1001600099E00197F1F700C0000067E070E08BE3D1
:1001700090E00E945500D5CF67E070E08BE390E0FF
:100180000E94490083EC99E00197F1F700C000005C
:1001900067E070E08BE390E00E94550064E070E05F
:1001A0008BE390E00E94550066E070E08BE390E006
:1001B0000E9455008AB38F6D8ABB0895CF93C82FD4
:1001C00082958F708BBB64E070E08BE390E00E94BF
:1001D000490066E070E08BE390E00E94550067E024
:1001E00070E08BE390E00E94490083EC99E0019776
:1001F000F1F700C0000067E070E08BE390E00E9440
:100200005500CF70CBBB64E070E08BE390E00E94C0
:10021000490066E070E08BE390E00E94550067E0E3
:1002200070E08BE390E00E94490083EC99E0019735
:10023000F1F700C0000067E070E08BE390E00E94FF
:10024000550064E070E08BE390E00E9455000E944E
:100250008200CF910895CF93DF93FC0104C090E01A
:100260000E94DE00FE01EF01219680818111F7CF0F
:10027000DF91CF910895CF93C82F82958F708BBB5C
:1002800064E070E08BE390E00E94550066E070E06F
:100290008BE390E00E94550067E070E08BE390E014
:1002A0000E94490083EC99E00197F1F700C000003B
:1002B00067E070E08BE390E00E945500CF70CBBB0D
:1002C00064E070E08BE390E00E94550066E070E02F
:1002D0008BE390E00E94550067E070E08BE390E0D4
:1002E0000E94490083EC99E00197F1F700C00000FB
:1002F00067E070E08BE390E00E9455000E9482006E
:10030000CF9108950F931F93CF93DF938C01EB014F
:1003100081E090E00E943B0182E090E00E943B017E
:10032000C8010E942B0180EC90E00E943B01CE01AD
:100330000E942B01DF91CF911F910F9108958FEDB6
:100340008ABB85EA9EE00197F1F700C0000083E0D8
:1003500090E00E94620081EE94E00197F1F700C006
:10036000000083E090E00E94620091E29A95F1F72C
:10037000000083E090E00E94620081E28A95F1F73C
:10038000000082E090E00E94620091E29A95F1F70D
:10039000000088E290E00E943B0188E090E00E942B
:1003A0003B0181E090E00E943B0186E090E00E94EA
:1003B0003B018FE090E00E943B01089530E0432F25
:1003C00050E081E090E0032E02C0880F991F0A944C
:1003D000E2F7809585BB0000000024E032C083B3C3
:1003E000622F70E090E0022E02C0959587950A94E6
:1003F000E2F780FD25C083ED90E30197F1F700C09F
:10040000000083B390E0062E02C0959587950A946C
:10041000E2F780FFF6CF83ED90E30197F1F700C09C
:10042000000087E090E0861B970B440F551F440F98
:10043000551F405A5F4FFA01E80FF91F8081089558
:100440002F5F283060F23F5F3370B9CF8FE084BBFD
:100450008FEF85BB08951F920F920FB60F92112454
:100460002F933F934F935F936F937F938F939F93BC
:10047000AF93BF93CF93EF93FF9386B3880F82958B
:100480008F70853010F0C0E001C0C82F833009F4B0
:10049000CE5F843009F4CA5F8091BC008C0F8093DA
:1004A000BC001F928F9380E790E09F938F938DEB1A
:1004B00090E09F938F930E9439030F900F900F90BD
:1004C0000F900F900F90B29BFECFCC2339F080ECB1
:1004D0000E943B018DEB90E00E942B01FF91EF9178
:1004E000CF91BF91AF919F918F917F916F915F91CC
:1004F0004F913F912F910F900FBE0F901F90189525
:100500000E949F010E94260283E887BB8FE788BB79
:1005100065E08AE590E00E94490066E084E590E0AD
:100520000E94550065E08BE590E00E944900109222
:10053000BC008FE00E943B016BEA70E080E890E035
:100540000E9482010E94DE01C82F8FEB8C0F823047
:10055000C8F78C2F0E94DE00C13411F4D3E001C033
:10056000D7E10E94DE01C82F8FEC8C0F8230C8F7D4
:100570008C2F0E94DE00C23331F4D33011F486E0B8
:1005800001C088E0D80F8CE00E943B010D2F10E0E5
:100590001F92DF938FE890E09F938F938DEC90E014
:1005A0009F938F930E9439038091BC001F928F9379
:1005B00080E790E09F938F938DEB90E09F938F93D4
:1005C0000E9439036DEB70E08DEC90E00E94820197
:1005D00087EA91E60197F1F700C0000078948DB7A3
:1005E0009EB70C960FB6F8949EBF0FBE8DBF80913C
:1005F000BC008D17E0F3F8948EE0EEE9F0E0ADEC8E
:10060000B0E001900D928A95E1F78091BC0090E0F6
:10061000801B910B9F938F938CEA90E09F938F9315
:100620008DEB90E09F938F930E9439036DEB70E008
:100630008DEC90E00E94820167E088E390E00E94E8
:1006400049009FE72AE186E0915020408040E1F791
:1006500000C0000081E00E943B0167E088E390E079
:100660000E9455000F900F900F900F900F900F90D9
:100670005ECFAEE0B0E0EFE3F3E00C94FA050D8955
:100680001E8986E08C831A8309838FEF9FE79E8300
:100690008D83AE01475E5F4F6F89788DCE010196E5
:1006A0000E945B03EF81F885E00FF11F10822E9608
:1006B000E4E00C941606ABE0B0E0E1E6F3E00C9465
:1006C000EC056C017B018A01FC0117821682838193
:1006D00081FFCCC1CE0101963C01F6019381F70167
:1006E00093FD859193FF81917F01882309F4BAC11D
:1006F000853239F493FD859193FF81917F01853295
:1007000029F4B60190E00E945205E7CF912C212CEC
:10071000312CFFE1F315D8F08B3279F038F48032C8
:1007200079F08332A1F4232D20611DC08D3261F058
:10073000803369F4232D216016C0832D8260382E0A
:10074000E32DE4603E2E2AC0F32DF8601DC037FC77
:100750002DC020ED280F2A3040F08E32B9F436FC3F
:1007600081C1232D2064322E19C036FE06C08AE0D6
:10077000989E200D1124922E11C0EAE02E9E200D8D
:100780001124222EF32DF0623F2E08C08C3621F466
:10079000832D8068382E02C0883641F4F70193FD1E
:1007A000859193FF81917F018111B3CF982F9F7D18
:1007B0009554933028F40C5F1F4F9FE399830DC02D
:1007C000833631F0833771F0833509F059C021C089
:1007D000F801808189830E5F1F4F88248394912CB8
:1007E000530113C02801F2E04F0E511CF801A08004
:1007F000B18036FE03C0692D70E002C06FEF7FEF5D
:10080000C5010E9447054C018201F32DFF773F2E61
:1008100016C0280122E0420E511CF801A080B180D0
:1008200036FE03C0692D70E002C06FEF7FEFC50197
:100830000E943C054C01F32DF0683F2E820133FCF1
:100840001BC0822D90E088169906B0F4B60180E2B4
:1008500090E00E9452052A94F4CFF50137FC85916F
:1008600037FE81915F01B60190E00E945205211090
:100870002A9421E0821A91088114910471F7E8C04A
:10088000843611F0893641F5F80137FE07C06081E2
:100890007181828193810C5F1F4F08C060817181DB
:1008A000072E000C880B990B0E5F1F4FF32DFF7660
:1008B0003F2E97FF09C090958095709561957F4F69
:1008C0008F4F9F4FF0683F2E2AE030E0A3010E9437
:1008D0008E05882E861845C0853731F4232D2F7E4E
:1008E000B22E2AE030E025C0932D997FB92E8F36A5
:1008F000C1F018F4883579F0B5C0803719F0883721
:1009000021F0B0C0E92FE061BE2EB4FE0DC0FB2D7A
:10091000F460BF2E09C034FE0AC0292F2660B22E13
:1009200006C028E030E005C020E130E002C020E150
:1009300032E0F801B7FE07C0608171818281938146
:100940000C5F1F4F06C06081718180E090E00E5FF8
:100950001F4FA3010E948E05882E8618FB2DFF775E
:100960003F2E36FE0DC0232D2E7FA22E891458F463
:1009700034FE0BC032FC09C0832D8E7EA82E05C02C
:10098000B82CA32C03C0B82C01C0B92CA4FE0FC0F6
:10099000FE01E80DF11D8081803321F49A2D997EAE
:1009A000A92E09C0A2FE06C0B394B39404C08A2D38
:1009B000867809F0B394A3FC11C0A0FE06C0B2145F
:1009C00088F4280C922C9B180EC0B21460F4B60167
:1009D00080E290E00E945205B394F7CFB21418F46D
:1009E0002B1802C0982C212CA4FE10C0B60180E365
:1009F00090E00E945205A2FE17C0A1FC03C088E748
:100A000090E002C088E590E0B6010CC08A2D86789F
:100A100059F0A1FE02C08BE201C080E2A7FC8DE28A
:100A2000B60190E00E945205891438F4B60180E3C3
:100A300090E00E9452059A94F7CF8A94F301E80D52
:100A4000F11D8081B60190E00E9452058110F5CF22
:100A5000222009F442CEB60180E290E00E945205C5
:100A60002A94F6CFF6018681978102C08FEF9FEF1F
:100A70002B96E2E10C940806FC0105906150704051
:100A80000110D8F7809590958E0F9F1F0895FC0157
:100A90006150704001900110D8F7809590958E0FAD
:100AA0009F1F08950F931F93CF93DF93FB01238123
:100AB00021FD03C08FEF9FEF2CC022FF16C046819F
:100AC0005781248135814217530744F4A081B181B5
:100AD0009D012F5F3F4F318320838C932681378187
:100AE0002F5F3F4F3783268314C08B01EC01FB013E
:100AF0000084F185E02D0995892BE1F6D801169641
:100B00008D919C911797019617969C938E931697AB
:100B1000CE01DF91CF911F910F910895FA01AA277D
:100B2000283051F1203181F1E8946F936E7F6E5F30
:100B30007F4F8F4F9F4FAF4FB1E03ED0B4E03CD0DE
:100B4000670F781F891F9A1FA11D680F791F8A1FC1
:100B5000911DA11D6A0F711D811D911DA11D20D028
:100B600009F468943F912AE0269F11243019305DE2
:100B70003193DEF6CF010895462F4770405D4193D3
:100B8000B3E00FD0C9F7F6CF462F4F70405D4A3320
:100B900018F0495D31FD4052419302D0A9F7EACFE8
:100BA000B4E0A6959795879577956795BA95C9F717
:100BB00000976105710508959B01AC010A2E06940A
:100BC0005795479537952795BA95C9F7620F731FC3
:100BD000841F951FA01D08952F923F924F925F9200
:100BE0006F927F928F929F92AF92BF92CF92DF923D
:100BF000EF92FF920F931F93CF93DF93CDB7DEB7A2
:100C0000CA1BDB0B0FB6F894DEBF0FBECDBF099435
:100C10002A88398848885F846E847D848C849B848C
:100C2000AA84B984C884DF80EE80FD800C811B819A
:100C3000AA81B981CE0FD11D0FB6F894DEBF0FBEC9
:0A0C4000CDBFED010895F894FFCF39
:100C4A0000000041000000423132000000000000B4
:100C5A005469656E65732024253032642E30300065
:100C6A00456C6967652050726F647563746F0049DB
:100C7A006E7365727461202425642E303000456ECF
:100C8A0074726567616E646F2E2E2E0043616D6209
:0C0C9A00696F20253032642E30300000DD
:00000001FF
