:100000000C942A000C943F000C943F000C943F0089
:100010000C943F000C943F000C943F000C943F0064
:100020000C943F000C943F000C943F000C943F0054
:100030000C943F000C943F000C943F000C943F0044
:100040000C943F000C943F000C943F000C943F0034
:100050000C943F0011241FBECFE5D4E0DEBFCDBF1E
:1000600010E0A0E6B0E0E6EAF1E002C005900D92F3
:10007000A037B107D9F70E948D000C94D1000C94E1
:10008000000030E0432F50E081E090E0032E02C0FA
:10009000880F991F0A94E2F780958BBB000000003F
:1000A00024E036C089B3622F70E090E0022E02C0D7
:1000B000959587950A94E2F780FD29C08FE493EC2B
:1000C0000197F1F700C0000089B390E0062E02C04E
:1000D000959587950A94E2F780FFF6CF8FE493EC2D
:1000E0000197F1F700C0000087E090E0861B970BB6
:1000F00023E030E0241B350B880F991F880F991FD0
:10010000805A9F4FFC01E20FF31F808108952F5FFB
:10011000283040F23F5F3370B5CF8FE08ABB8FEF5E
:1001200084BB8BBBC0E02C2F2A7A30E03595279515
:100130008C2F857590E0880F991F282B392BC901CA
:100140008C7C99279595879595958795237333276B
:10015000220F331F220F331F822B932B9C012295DA
:100160003295307F3227207F322795958795959558
:1001700087959595879595958795822B932B959542
:1001800087959595879585BB0E944100893019F424
:10019000C93008F4CF5F813031F6CC2321F2C15051
:0601A000C2CFF894FFCF6E
:1001A6000708090A0405060B0102030C0E000F0DD1
:00000001FF
