:100000000C942A000C943F000C943F000C943F0089
:100010000C943F000C943F000C943F000C943F0064
:100020000C943F000C943F000C943F000C943F0054
:100030000C943F000C943F000C943F000C943F0044
:100040000C943F000C943F000C943F000C943F0034
:100050000C943F0011241FBECFE5D4E0DEBFCDBF1E
:1000600010E0A0E6B0E0EEEBF1E002C005900D92EA
:10007000A037B107D9F70E948D000C94DD000C94D5
:10008000000030E0432F50E081E090E0032E02C0FA
:10009000880F991F0A94E2F780958BBB000000003F
:1000A00024E036C089B3622F70E090E0022E02C0D7
:1000B000959587950A94E2F780FD29C08FE493EC2B
:1000C0000197F1F700C0000089B390E0062E02C04E
:1000D000959587950A94E2F780FFF6CF8FE493EC2D
:1000E0000197F1F700C0000087E090E0861B970BB6
:1000F00023E030E0241B350B880F991F880F991FD0
:10010000805A9F4FFC01E20FF31F808108952F5FFB
:10011000283040F23F5F3370B5CF8FE08ABB8FEF5E
:1001200087BB84BB8BBB12BE8EE08CBF8CE683BFCB
:10013000C0E02C2F2A7A30E0359527958C2F8575D5
:1001400090E0880F991F282B392BC9018C7C9927A7
:10015000959587959595879523733327220F331FA0
:10016000220F331F822B932B9C0122953295307FD7
:100170003227207F32279595879595958795959578
:10018000879595958795822B932B95958795959532
:10019000879585BB0E944100893019F4C93008F465
:1001A000CF5F813011F4C111C1508D3011F68C2F09
:0E01B00090E00796880F8CBFBCCFF894FFCF6D
:1001BE000708090A0405060B0102030C0E000F0DB9
:00000001FF
