:100000000C942A000C943F000C943F000C943F0089
:100010000C943F000C943F000C943F000C943F0064
:100020000C943F000C943F000C943F000C943F0054
:100030000C943F000C943F000C943F000C943F0044
:100040000C943F000C943F000C943F000C943F0034
:100050000C943F0011241FBECFE5D4E0DEBFCDBF1E
:1000600010E0A0E6B0E0ECE9F1E002C005900D92EE
:10007000A037B107D9F70E94B3000C94CC000C94C0
:100080000000682F617070E0FB01EE0FFF1FE2952A
:10009000F295F07FFE27E07FFE27982F9270692F60
:1000A00070E0660F771F660F771F660F771F982F18
:1000B0009470492F50E0440F551F8870282F30E06E
:1000C000359527958E2F862B842B822B089530E033
:1000D000432F50E081E090E0032E02C0880F991F6B
:1000E0000A94E2F780958BBB0000000024E036C044
:1000F00089B3622F70E090E0022E02C0959587953B
:100100000A94E2F780FD29C08FE493EC0197F1F7A0
:1001100000C0000089B390E0062E02C09595879537
:100120000A94E2F780FFF6CF8FE493EC0197F1F7A2
:1001300000C0000087E090E0861B970B23E030E0D2
:10014000241B350B880F991F880F991F805A9F4FCA
:10015000FC01E20FF31F808108952F5F283040F2E9
:100160003F5F3370B5CF8FE08ABB8FEF8BBB84BB13
:1001700084E185BBC0E08C2F0E94410085BB0E94BA
:100180006700893019F4C93008F4CF5F813099F7DE
:0C019000CC2389F3C150EFCFF894FFCFCF
:10019C000708090A0405060B0102030C0E000F0DDB
:00000001FF
