S00C0000373434372E7372656342
S11300000C942A000C9434000C9434000C943400A6
S11300100C9434000C9434000C9434000C9434008C
S11300200C9434000C9434000C9434000C9434007C
S11300300C9434000C9434000C9434000C9434006C
S11300400C9434000C9434000C9434000C9434005C
S11300500C94340011241FBECFE5D4E0DEBFCDBF25
S11300600E9436000C9460000C9400008FE08ABB60
S11300708FEF8BBB84BB89B382958F7011F09FEF98
S113008001C090EC813009F499EF823009F494EACC
S1130090833009F490EB843009F499E9853009F44C
S11300A092E9863009F492E8873009F498EF8830B1
S11300B009F490E8893009F490E9909595BBDBCF79
S10700C0F894FFCFDE
S9030000FC
