S00C0000373434372E7372656342
S11300000C942A000C9434000C9434000C943400A6
S11300100C9434000C9434000C9434000C9434008C
S11300200C9434000C9434000C9434000C9434007C
S11300300C9434000C9434000C9434000C9434006C
S11300400C9434000C9434000C9434000C9434005C
S11300500C94340011241FBECFE5D4E0DEBFCDBF25
S11300600E9436000C9474000C9400008FE08ABB4C
S11300708FEF8BBB84BB49B330E020E010C081E03C
S113008090E0032E02C0880F991F0A94E2F7942F80
S113009095959595959595958923280F3F5F3430CF
S11300A074F3222311F08FEF01C080EC213009F4A6
S11300B089EF223009F484EA233009F480EB2430F8
S11300C009F489E9253009F482E9263009F482E843
S11300D0273009F488EF283009F480E8293009F43E
S10F00E080E9809585BBC7CFF894FFCF62
S9030000FC
