:020000020000FC
:100000000C942A000C9450000C9456000C94570049
:100010000C9458000C9459000C945A000C945B00FA
:100020000C945C000C945D000C945E000C945F00DA
:100030000C9460000C9461000C9462000C946300BA
:100040000C9464000C9465000C9466000C9467009A
:100050000C94680004E00EBF0FE50DBF789402E039
:1000600005BF00EE0ABF00E70BBF00EF01BB0FEFBB
:100070000ABB02BB00270BBB08E002E209E405E56E
:100080000DE507E70FE7F8CF15E624EA2A95F1F723
:100090001A95D9F711E01A95F1F7000000000895BC
:1000A0000BBBF2DF829BFECFEFDF189518951895FA
:1000B00018951895189518951895189518951895D8
:1000C00018951895189518951895189518951895C8
:0200D000189581
:00000001FF
