:100000000C942A000C9447000C9447000C94470071
:100010000C9447000C9447000C9447000C94470044
:100020000C9447000C9447000C9447000C94470034
:100030000C9447000C9447000C9447000C94470024
:100040000C9447000C9447000C9447000C94470014
:100050000C94470011241FBECFE5D4E0DEBFCDBF16
:1000600011E0A0E6B0E0E0EFF4E002C005900D92F0
:10007000AA30B107D9F721E0AAE0B1E001C01D9292
:10008000AA30B207E1F70E94E9010C9476020C94C1
:10009000000030E0432F50E081E090E0032E02C0EA
:1000A000880F991F0A94E2F780958BBB000000002F
:1000B00024E036C089B3622F70E090E0022E02C0C7
:1000C000959587950A94E2F780FD29C083ED90E32A
:1000D0000197F1F700C0000089B390E0062E02C03E
:1000E000959587950A94E2F780FFF6CF83ED90E32C
:1000F0000197F1F700C0000087E090E0861B970BA6
:1001000023E030E0241B350B880F991F880F991FBF
:10011000805A9F4FFC01E20FF31F808108952F5FEB
:10012000283040F23F5F3370B5CF8FE08ABB8FEF4E
:100130008BBB0895FC01408121E030E002C0220F1A
:10014000331F6A95E2F7242B20830895FC019081E8
:1001500021E030E002C0220F331F6A95E2F72095BC
:1001600029232083089585BB64E085E390E00E9405
:10017000A60065E085E390E00E94A60066E085E3C6
:1001800090E00E949A0083EC99E00197F1F700C09B
:10019000000066E085E390E00E94A600089584B325
:1001A000807F84BB64E085E390E00E94A60065E068
:1001B00085E390E00E949A0066E085E390E00E946B
:1001C0009A0083EC99E00197F1F700C0000066E027
:1001D00085E390E00E94A6009B9915C093E09A9554
:1001E000F1F7000066E085E390E00E949A0083EC5E
:1001F00099E00197F1F700C0000066E085E390E028
:100200000E94A600D9CF66E085E390E00E949A00A4
:1002100083EC99E00197F1F700C0000066E085E308
:1002200090E00E94A60064E085E390E00E94A600B2
:1002300065E085E390E00E94A60084B38F6784BBED
:100240000895CF93C82F82958F7085BB64E085E3B6
:1002500090E00E949A0065E085E390E00E94A6008D
:1002600066E085E390E00E949A0083EC99E00197B4
:10027000F1F700C0000066E085E390E00E94A60070
:10028000CF70C5BB64E085E390E00E949A0065E012
:1002900085E390E00E94A60066E085E390E00E947E
:1002A0009A0083EC99E00197F1F700C0000066E046
:1002B00085E390E00E94A60064E085E390E00E9460
:1002C000A6000E94CF00CF910895CF93DF93FC0149
:1002D00003C00E942101FE01EF012196808181115E
:1002E000F8CFDF91CF910895CF93C82F82958F706B
:1002F00085BB64E085E390E00E94A60065E085E3AD
:1003000090E00E94A60066E085E390E00E949A00DB
:1003100083EC99E00197F1F700C0000066E085E307
:1003200090E00E94A600CF70C5BB64E085E390E03A
:100330000E94A60065E085E390E00E94A60066E0CA
:1003400085E390E00E949A0083EC99E00197F1F731
:1003500000C0000066E085E390E00E94A6000E94D5
:10036000CF00CF9108958FE784BB85EA9EE0019787
:10037000F1F700C0000083E00E94B30081EE94E03A
:100380000197F1F700C0000083E00E94B30091E202
:100390009A95F1F7000083E00E94B30081E28A950C
:1003A000F1F7000082E00E94B30091E29A95F1F724
:1003B000000088E20E94740188E00E94740181E0DC
:1003C0000E94740186E00E9474018CE00E94740116
:1003D00008950E94B3010E94950080E790E00E947A
:1003E00065010E944900C82FD0EDD80F81E00E941E
:1003F000740182E00E94740181E890E00E9465012E
:100400008C2F0E94210180EC0E9474018EE990E003
:100410000E946501D23018F083E70E94210181E03B
:100420000E94740182E00E9474018CE890E00E94B6
:10043000650180EC0E9474018C2F0E9421018DE9DE
:1004400090E00E946501D23018F083E70E942101FC
:100450008EE20E94210181E00E94740182E00E94EC
:10046000740189EA90E00E94650180EC0E947401A9
:1004700088EB90E00E94650181E00E94740182E0B7
:100480000E94740187EC90E00E94650180EC0E945C
:10049000740182ED90E00E9465010E944900C82F1E
:1004A0008B32D9F781E00E94740182E00E947401CE
:1004B00083EE90E00E94650180EC0E9474018CEE56
:1004C00090E00E94650180E001C08F5F8D17E8F326
:1004D000C53409F082CF82E00E94740189EF90E078
:1004E0000E94650180E30E94210177CFF894FFCF3D
:1004F0003738394134353642313233434530462B73
:100500004375616E74617320636F6F7264656E61B1
:10051000004573636F6E64657265200054752064D6
:100520006562657320627573636172200020636F7A
:100530006F7264656E61646100322066696C61731C
:100540002028302C20312900313020636F6C73203B
:1005500028302C2039290050726573696F6E612034
:100560002B007061726120636F6E74696E756172C9
:100570002E2E005472617461206465006D656D6F8C
:1005800072697A61722E2E2E0054752070756E7409
:0A059000616A652065733A200000DF
:00000001FF
