S00F00004C434447616D652E73726563C8
S11300000C942A000C9447000C9447000C9447006D
S11300100C9447000C9447000C9447000C94470040
S11300200C9447000C9447000C9447000C94470030
S11300300C9447000C9447000C9447000C94470020
S11300400C9447000C9447000C9447000C94470010
S11300500C94470011241FBECFE5D4E0DEBFCDBF12
S113006012E0A0E6B0E0E6EBF1E102C005900D92EB
S1130070A832B107D9F722E0A8E2B2E001C01D928C
S1130080A236B207E1F70E943F020C94D9080C94FF
S11300900000FC010FB6F89460915E0270915F025B
S11300A080916002909161020FBE309721F06083CD
S11300B0718382839383089530E0432F50E081E07D
S11300C090E0032E02C0880F991F0A94E2F78095EE
S11300D08BBB0000000024E036C089B3622F70E0BF
S11300E090E0022E02C0959587950A94E2F780FD70
S11300F029C083ED90E30197F1F700C0000089B3B4
S113010090E0062E02C0959587950A94E2F780FF49
S1130110F6CF83ED90E30197F1F700C0000087E08C
S113012090E0861B970B23E030E0241B350B880FEF
S1130130991F880F991F8C599F4FFC01E20FF31FE1
S1130140808108952F5F283040F23F5F33708091A3
S11301503C028F5F80933C02B0CF8FE08ABB8FEF6D
S11301608BBB0895FC01408121E030E002C0220FE6
S1130170331F6A95E2F7242B20830895FC019081B4
S113018021E030E002C0220F331F6A95E2F7209588
S113019029232083089585BB64E085E390E00E94D1
S11301A0BE0065E085E390E00E94BE0066E085E362
S11301B090E00E94B20083EC99E00197F1F700C04F
S11301C0000066E085E390E00E94BE00089584B3D9
S11301D0807F84BB64E085E390E00E94BE0065E01C
S11301E085E390E00E94B20066E085E390E00E941F
S11301F0B20083EC99E00197F1F700C0000066E0DB
S113020085E390E00E94BE009B9915C093E09A9507
S1130210F1F7000066E085E390E00E94B20083EC11
S113022099E00197F1F700C0000066E085E390E0F3
S11302300E94BE00D9CF66E085E390E00E94B20040
S113024083EC99E00197F1F700C0000066E085E3D4
S113025090E00E94BE0064E085E390E00E94BE004E
S113026065E085E390E00E94BE0084B38F6784BBA1
S11302700895CF93C82F82958F7085BB64E085E382
S113028090E00E94B20065E085E390E00E94BE0029
S113029066E085E390E00E94B20083EC99E0019768
S11302A0F1F700C0000066E085E390E00E94BE0024
S11302B0CF70C5BB64E085E390E00E94B20065E0C6
S11302C085E390E00E94BE0066E085E390E00E9432
S11302D0B20083EC99E00197F1F700C0000066E0FA
S11302E085E390E00E94BE0064E085E390E00E9414
S11302F0BE000E94E700CF910895CF93DF93FC01E5
S113030003C00E943901FE01EF0121968081811111
S1130310F8CFDF91CF910895CF93C82F82958F7036
S113032085BB64E085E390E00E94BE0065E085E360
S113033090E00E94BE0066E085E390E00E94B20077
S113034083EC99E00197F1F700C0000066E085E3D3
S113035090E00E94BE00CF70C5BB64E085E390E0EE
S11303600E94BE0065E085E390E00E94BE0066E066
S113037085E390E00E94B20083EC99E00197F1F7E5
S113038000C0000066E085E390E00E94BE000E9489
S1130390E700CF9108950F931F93CF93DF938C01C0
S11303A0EB0181E00E948C0182E00E948C01C80173
S11303B00E947D0180EC0E948C01CE010E947D018F
S11303C0DF91CF911F910F910895CF930E945C000C
S11303D0C82F8534D9F482E00E948C0181E00E9408
S11303E08C0184E790E00E947D0180913D02805D54
S11303F00E94390187E49EEE0197F1F700C00000E6
S11304006EE372E08EE492E00E94CB018C2FCF91D8
S113041008958FE784BB85EA9EE00197F1F700C059
S1130420000083E00E94CB0081EE94E00197F1F795
S113043000C0000083E00E94CB0091E29A95F1F79E
S1130440000083E00E94CB0081E28A95F1F700006E
S113045082E00E94CB0091E29A95F1F7000088E2D5
S11304600E948C0188E00E948C0181E00E948C0132
S113047086E00E948C018CE00E948C0108950E9409
S113048009020E94AD0080913C0290E00E94490064
S11304900E94810510923D0281E1E4E8F0E0AEE4BF
S11304A0B2E001900D928A95E1F710923E026EE35C
S11304B072E08EE492E00E94CB010E94E501C82F15
S11304C00F2EF0EDFF2EF02DF80E89E08F15A8F316
S11304D01F92CF9385E990E09F938F938EE492E0EF
S11304E09F938F930E948C058BE0E2EAF0E0AEE3E9
S11304F0B2E001900D928A95E1F70F900F900F9062
S11305000F900F900F9091E09F1548F48CE0EDEA66
S1130510F0E0AEE3B2E001900D928A95E1F76EE36C
S113052072E08EE492E00E94CB0187E49EEE019794
S1130530F1F700C0000081E1E9EBF0E0AEE4B2E0E5
S113054001900D928A95E1F71F92CF938AEC90E087
S11305509F938F938EE392E09F938F930E948C05D9
S11305600F900F900F900F900F900F9091E09F15A8
S113057090F41F92CF9389ED90E09F938F938EE335
S113058092E09F938F930E948C050F900F900F9091
S11305900F900F900F906EE372E08EE492E00E9451
S11305A0CB0187E49EEE0197F1F700C000008EE0D6
S11305B0E9EEF0E0AEE4B2E001900D928A95E1F745
S11305C08EE0E7EFF0E0AEE3B2E001900D928A95A1
S11305D0E1F76EE372E08EE492E00E94CB0187E4DF
S11305E09EEE0197F1F700C0000081E1E5E0F1E043
S11305F0AEE3B2E001900D928A95E1F78BE0E6E17B
S1130600F1E0AEE4B2E001900D928A95E1F76EE379
S113061072E08EE492E00E94CB010E94E5018B32ED
S1130620E1F78DE0E1E2F1E0AEE3B2E001900D929A
S11306308A95E1F789E0EEE2F1E0AEE4B2E0019000
S11306400D928A95E1F76EE372E08EE492E00E94E7
S1130650CB0187E49EEE0197F1F700C00000EF2C78
S1130660EE0CD12C6DC00E947C058C0101701078B9
S1130670112334F4015011090E6F1F6F0F5F1F4FC8
S11306800E947C056AE070E00E9408051127EC01D5
S1130690DD27F801EE0FFF1F9801220F331F220FF1
S11306A0331F220F331FE20FF31FE85DFD4FEC0FE2
S11306B0FD1F80818111D7CFF801EE0FFF1F980134
S11306C0220F331F220F331F220F331FE20FF31F9A
S11306D0E85DFD4FEC0FFD1F8F5F80838D2D90E053
S11306E001969F938F9387E391E09F938F938EE47A
S11306F092E09F938F930E948C05DF93CF931F9377
S11307000F9383E491E09F938F938EE392E09F9302
S11307108F930E948C056EE372E08EE492E00E9457
S1130720CB0187E49EEE0197F1F700C00000D3945B
S11307308DB79EB70E960FB6F8949EBF0FBE8DBFB1
S1130740DF1408F490CF1F92EF928AE491E09F9314
S11307508F938EE492E09F938F930E948C0589E09F
S1130760E4E5F1E0AEE3B2E001900D928A95E1F7A1
S11307706EE372E08EE492E00E94CB0187E49EEE89
S11307800197F1F700C000000F900F900F900F90A9
S11307900F900F90E1C00F2D10E0000F111F0D1BE3
S11307A011091F930F938DE591E09F938F938EE42E
S11307B092E09F938F930E948C0510923E026EE309
S11307C072E08EE492E00E94CB010F900F900F90A4
S11307D00F900F900F900E94E501C0EDC80FCA3032
S11307E0D0F7CC2ED12C1F92CF931F930F9389E671
S11307F091E09F938F938EE492E09F938F930E9456
S11308008C0510923E026EE372E08EE492E00E9448
S1130810CB018DB79EB708960FB6F8949EBF0FBE56
S11308208DBF0E94E50180538A30D8F7A82EB12CE1
S11308301F928F931F92CF931F930F938AE791E098
S11308409F938F938EE492E09F938F930E948C05E5
S11308508DB79EB70A960FB6F8949EBF0FBE8DBF94
S1130860C23008F04CC0C601880F991F880F991F29
S1130870880F991FF601EE0FFF1FE80FF91FE85DBF
S1130880FD4FEA0DFB1D208121110BC086E0EFE82E
S1130890F1E0AEE3B2E001900D928A95E1F7ED2E1E
S11308A038C0213011F588E0E5E9F1E0AEE3B2E0CB
S11308B001900D928A95E1F780913D028F5F8093BC
S11308C03D02C601880F991FCC0CDD1CCC0CDD1C2D
S11308D0CC0CDD1C8C0D9D1D885D9D4FFC01EA0D2B
S11308E0FB1D2F5F2083ED2E14C08BE0EDE9F1E0BA
S11308F0AEE3B2E001900D928A95E1F70AC080E17F
S1130900E8E1F2E0AEE3B2E001900D928A95E1F7FE
S1130910ED2E6EE372E08EE492E00E94CB0187E458
S11309209EEE0197F1F700C0000080913D02F8129D
S113093013C081E1E8EAF1E0AEE4B2E001900D9287
S11309408A95E1F78CE0E9EBF1E0AEE3B2E00190E7
S11309500D928A95E1F704C0DFEFDE0DE1101BCFA5
S113096080913D02F81691F081E1E5ECF1E0AEE40E
S1130970B2E001900D928A95E1F78DE0E6EDF1E0A9
S1130980AEE3B2E001900D928A95E1F76EE372E076
S11309908EE492E00E94CB0187E49EEE0197F1F78A
S11309A000C0000080913D02F81213C08BE0E3EE1A
S11309B0F1E0AEE4B2E001900D928A95E1F78DE0AA
S11309C0EEEEF1E0AEE3B2E001900D928A95E1F72C
S11309D012C081E1EBEFF1E0AEE3B2E001900D92E1
S11309E08A95E1F78CE0ECE0F2E0AEE4B2E001904D
S11309F00D928A95E1F76EE372E08EE492E00E9434
S1130A00CB0187E49EEE0197F1F700C000003BCDD7
S1130A1097FB072E16F4009407D077FD09D00E94A7
S1130A201C0507FC05D03EF4909581959F4F0895D1
S1130A30709561957F4F0895AA1BBB1B51E107C0B8
S1130A40AA1FBB1FA617B70710F0A61BB70B881F5A
S1130A50991F5A95A9F780959095BC01CD010895E9
S1130A608F929F92AF92BF92CF92DF92EF92FF92BA
S1130A70CF93DF93EC01688179818A819B81611531
S1130A8071058105910521F464E279ED8BE597E028
S1130A902DE133EF41E050E00E943F0849015A0143
S1130AA09B01AC01A7EAB1E40E945E086B017C01E2
S1130AB0ACEEB4EFA50194010E946C08DC01CB01FB
S1130AC08C0D9D1DAE1DBF1DB7FF03C00197A1096D
S1130AD0B04888839983AA83BB839F77DF91CF91A2
S1130AE0FF90EF90DF90CF90BF90AF909F908F904A
S1130AF008950E943005089580E690E00E94300534
S1130B000895A0E0B0E08093600090936100A0930A
S1130B106200B09363000895AEE0B0E0E2E9F5E06E
S1130B200C947F080D891E8986E08C831A830983BF
S1130B308FEF9FE79E838D83AE01475E5F4F6F8982
S1130B40788DCE0101960E94AE05EF81F885E00F05
S1130B50F11F10822E96E4E00C949B08ABE0B0E009
S1130B60E4EBF5E00C9471086C017B018A01FC0153
S1130B7017821682838181FFCCC1CE0101963C018C
S1130B80F6019381F70193FD859193FF81917F0194
S1130B90882309F4BAC1853239F493FD859193FF12
S1130BA081917F01853229F4B60190E00E94A50766
S1130BB0E7CF912C212C312CFFE1F315D8F08B32A7
S1130BC079F038F4803279F08332A1F4232D206156
S1130BD01DC08D3261F0803369F4232D216016C06D
S1130BE0832D8260382EE32DE4603E2E2AC0F32D3F
S1130BF0F8601DC037FC2DC020ED280F2A3040F0CE
S1130C008E32B9F436FC81C1232D2064322E19C0F2
S1130C1036FE06C08AE0989E200D1124922E11C043
S1130C20EAE02E9E200D1124222EF32DF0623F2E99
S1130C3008C08C3621F4832D8068382E02C0883693
S1130C4041F4F70193FD859193FF81917F01811117
S1130C50B3CF982F9F7D9554933028F40C5F1F4F8A
S1130C609FE399830DC0833631F0833771F0833568
S1130C7009F059C021C0F801808189830E5F1F4F9C
S1130C8088248394912C530113C02801F2E04F0E61
S1130C90511CF801A080B18036FE03C0692D70E0BC
S1130CA002C06FEF7FEFC5010E949A074C018201D9
S1130CB0F32DFF773F2E16C0280122E0420E511C6F
S1130CC0F801A080B18036FE03C0692D70E002C037
S1130CD06FEF7FEFC5010E948F074C01F32DF06881
S1130CE03F2E820133FC1BC0822D90E088169906AA
S1130CF0B0F4B60180E290E00E94A5072A94F4CFF4
S1130D00F50137FC859137FE81915F01B60190E0D2
S1130D100E94A50721102A9421E0821A91088114C7
S1130D20910471F7E8C0843611F0893641F5F80171
S1130D3037FE07C060817181828193810C5F1F4FF0
S1130D4008C060817181072E000C880B990B0E5F1F
S1130D501F4FF32DFF763F2E97FF09C09095809586
S1130D60709561957F4F8F4F9F4FF0683F2E2AE01B
S1130D7030E0A3010E94E107882E861845C085371C
S1130D8031F4232D2F7EB22E2AE030E025C0932D9E
S1130D90997FB92E8F36C1F018F4883579F0B5C033
S1130DA0803719F0883721F0B0C0E92FE061BE2EFA
S1130DB0B4FE0DC0FB2DF460BF2E09C034FE0AC082
S1130DC0292F2660B22E06C028E030E005C020E1BD
S1130DD030E002C020E132E0F801B7FE07C06081D4
S1130DE07181828193810C5F1F4F06C06081718184
S1130DF080E090E00E5F1F4FA3010E94E107882E60
S1130E008618FB2DFF773F2E36FE0DC0232D2E7F37
S1130E10A22E891458F434FE0BC032FC09C0832D71
S1130E208E7EA82E05C0B82CA32C03C0B82C01C0FC
S1130E30B92CA4FE0FC0FE01E80DF11D80818033A2
S1130E4021F49A2D997EA92E09C0A2FE06C0B3945E
S1130E50B39404C08A2D867809F0B394A3FC11C01E
S1130E60A0FE06C0B21488F4280C922C9B180EC065
S1130E70B21460F4B60180E290E00E94A507B39436
S1130E80F7CFB21418F42B1802C0982C212CA4FE0E
S1130E9010C0B60180E390E00E94A507A2FE17C02F
S1130EA0A1FC03C088E790E002C088E590E0B601A9
S1130EB00CC08A2D867859F0A1FE02C08BE201C0D5
S1130EC080E2A7FC8DE2B60190E00E94A507891498
S1130ED038F4B60180E390E00E94A5079A94F7CF16
S1130EE08A94F301E80DF11D8081B60190E00E941F
S1130EF0A5078110F5CF222009F442CEB60180E285
S1130F0090E00E94A5072A94F6CFF6018681978186
S1130F1002C08FEF9FEF2B96E2E10C948D08FC0149
S1130F200590615070400110D8F7809590958E0F10
S1130F309F1F0895FC016150704001900110D8F783
S1130F40809590958E0F9F1F08950F931F93CF93B5
S1130F50DF93FB01238121FD03C08FEF9FEF2CC0A2
S1130F6022FF16C0468157812481358142175307D9
S1130F7044F4A081B1819D012F5F3F4F31832083D1
S1130F808C93268137812F5F3F4F3783268314C08C
S1130F908B01EC01FB010084F185E02D0995892B7F
S1130FA0E1F6D80116968D919C91179701961796A4
S1130FB09C938E931697CE01DF91CF911F910F9141
S1130FC00895FA01AA27283051F1203181F1E894DB
S1130FD06F936E7F6E5F7F4F8F4F9F4FAF4FB1E028
S1130FE03ED0B4E03CD0670F781F891F9A1FA11D23
S1130FF0680F791F8A1F911DA11D6A0F711D811D24
S1131000911DA11D20D009F468943F912AE0269FE8
S113101011243019305D3193DEF6CF010895462F47
S11310204770405D4193B3E00FD0C9F7F6CF462F28
S11310304F70405D4A3318F0495D31FD4052419391
S113104002D0A9F7EACFB4E0A6959795879577954E
S11310506795BA95C9F700976105710508959B01D5
S1131060AC010A2E06945795479537952795BA955E
S1131070C9F7620F731F841F951FA01D0895052EC5
S113108097FB1EF400940E94560857FD07D00E9457
S1131090A80807FC03D04EF40C94560850954095CC
S11310A0309521953F4F4F4F5F4F08959095809510
S11310B0709561957F4F8F4F9F4F08950E94CA0886
S11310C0A59F900DB49F900DA49F800D911D112498
S11310D00895B7FF0C945E080E945E08821B930B70
S11310E008952F923F924F925F926F927F928F92C8
S11310F09F92AF92BF92CF92DF92EF92FF920F93A3
S11311001F93CF93DF93CDB7DEB7CA1BDB0B0FB6AC
S1131110F894DEBF0FBECDBF09942A883988488869
S11311205F846E847D848C849B84AA84B984C884FF
S1131130DF80EE80FD800C811B81AA81B981CE0FF6
S1131140D11D0FB6F894DEBF0FBECDBFED010895DB
S1131150A1E21A2EAA1BBB1BFD010DC0AA1FBB1FB7
S1131160EE1FFF1FA217B307E407F50720F0A21B29
S1131170B30BE40BF50B661F771F881F991F1A9496
S113118069F760957095809590959B01AC01BD01C0
S1131190CF010895A29FB001B39FC001A39F700D1A
S11311A0811D1124911DB29F700D811D1124911D6B
S10911B00895F894FFCF3E
S11311B60100000031323341343536423738394381
S11311C64530462B54752070756E74616A652065CA
S11311D6733A20004375616E74617320636F6F7296
S11311E664656E61004573636F6E64657265202580
S11311F66300636F6F7264656E61646100636F6F31
S11312067264656E61646173005475206465626519
S113121673206275736361722000256320636F6FA8
S11312267264656E6164612E00256320636F6F725C
S113123664656E616461732E00322066696C617345
S11312462028302C312900313020636F6C7320281C
S1131256302D3929007061726120636F6E74696E76
S11312667561722E2E0050726573696F6E61202B44
S1131276006D656D6F72697A61722E2E2E0054723E
S113128661746120646500437561647269746F20DA
S113129625640025642C202564005469656E6573F5
S11312A620256400696E74656E746F7300496E74EC
S11312B6656E746F2025306400496E74656E746FB4
S11312C620253064202825642C00496E74656E74CC
S11312D66F20253064202825642C202564290045A8
S11312E672726F72004163696572746F005961208E
S11312F665737461626121005469656E6573206566
S11313067863656C656E7465006D656D6F72696191
S113131620212121005475206D656D6F726961204D
S11313266E6F2065730074616E206275656E612050
S11313363D280047616E617374652121210046656D
S11313466C69636964616465732100496E74656ED2
S11313567461206465206E7565766F0050657264ED
S113136669737465212121004E6F20657869737451
S10B137665206C7567617200CB
S9030000FC
