:100000000C942A000C943F000C943F000C943F0089
:100010000C943F000C943F000C943F000C943F0064
:100020000C943F000C943F000C943F000C943F0054
:100030000C943F000C943F000C943F000C943F0044
:100040000C943F000C943F000C943F000C943F0034
:100050000C943F0011241FBECFE5D4E0DEBFCDBF1E
:1000600010E0A0E6B0E0E8E6FAE002C005900D92EC
:10007000A437B107D9F70E9417020C9432050C94EB
:100080000000FC01408121E030E002C0220F331F5C
:100090006A95E2F7242B20830895FC01908121E0EA
:1000A00030E002C0220F331F6A95E2F72095292322
:1000B0002083089582BB64E070E082E390E00E94B8
:1000C0004D0065E070E082E390E00E944D0066E044
:1000D00070E082E390E00E94410083EC99E0019798
:1000E000F1F700C0000066E070E082E390E00E945B
:1000F0004D00089581B3807F81BB64E070E082E3AE
:1001000090E00E944D0065E070E082E390E00E9484
:10011000410066E070E082E390E00E94410083ECE1
:1001200099E00197F1F700C0000066E070E082E31B
:1001300090E00E944D00839917C093E09A95F1F7E3
:10014000000066E070E082E390E00E94410083ECF2
:1001500099E00197F1F700C0000066E070E082E3EB
:1001600090E00E944D00D5CF66E070E082E390E021
:100170000E94410083EC99E00197F1F700C0000074
:1001800066E070E082E390E00E944D0064E070E081
:1001900082E390E00E944D0065E070E082E390E031
:1001A0000E944D0081B38F6781BB0895CF93C82F04
:1001B00082958F7082BB64E070E082E390E00E94E1
:1001C000410065E070E082E390E00E944D0066E04F
:1001D00070E082E390E00E94410083EC99E0019797
:1001E000F1F700C0000066E070E082E390E00E945A
:1001F0004D00CF70C2BB64E070E082E390E00E94EB
:10020000410065E070E082E390E00E944D0066E00E
:1002100070E082E390E00E94410083EC99E0019756
:10022000F1F700C0000066E070E082E390E00E9419
:100230004D0064E070E082E390E00E944D000E9477
:100240007A00CF910895CF93DF93FC0104C090E032
:100250000E94D600FE01EF01219680818111F7CF27
:10026000DF91CF910895CF93C82F82958F7082BB75
:1002700064E070E082E390E00E944D0065E070E091
:1002800082E390E00E944D0066E070E082E390E03F
:100290000E94410083EC99E00197F1F700C0000053
:1002A00066E070E082E390E00E944D00CF70C2BB38
:1002B00064E070E082E390E00E944D0065E070E051
:1002C00082E390E00E944D0066E070E082E390E0FF
:1002D0000E94410083EC99E00197F1F700C0000013
:1002E00066E070E082E390E00E944D000E947A0098
:1002F000CF9108958FE781BB85EA9EE00197F1F7E2
:1003000000C0000083E090E00E945A0081EE94E07B
:100310000197F1F700C0000083E090E00E945A00CE
:1003200091E29A95F1F7000083E090E00E945A0074
:1003300081E28A95F1F7000082E090E00E945A0085
:1003400091E29A95F1F7000088E290E00E94330173
:1003500088E090E00E94330181E090E00E94330148
:1003600086E090E00E9433018CE090E00E9433012F
:10037000089530E0311101C03F5F432F50E081E02C
:1003800090E0032E02C0880F991F0A94E2F780952F
:100390008BBB0000000025E034C089B3622F70E001
:1003A00090E0022E02C0959587950A94E2F780FDB1
:1003B00027C083ED90E30197F1F700C0000089B3F7
:1003C00090E0062E02C0959587950A94E2F780FF8B
:1003D000F6CF83ED90E30197F1F700C0000084E0D1
:1003E00090E0841B950B65507109FC01EE0FFF1F17
:1003F000E80FF91FE05AFF4FE60FF71F80810895BD
:100400002F5F283050F281E0830F3DEC839F312D28
:10041000112436953695932F990F990F390F831B19
:10042000382FA8CF8FE18ABB8FEF8BBB0895CF9376
:10043000DF93CDB7DEB760970FB6F894DEBF0FBE7F
:10044000CDBF0E9412020E947A010E94B901182FAA
:1004500081E00E94330185E80E943301812F90E002
:10046000C0969F938F938CE690E09F938F938E011D
:100470000F5F1F4F1F930F930E944802C8010E94F5
:1004800023010F900F900F900F900F900F90DDCFE2
:10049000AEE0B0E0EEE4F2E00C9409050D891E89AF
:1004A00086E08C831A8309838FEF9FE79E838D8379
:1004B000AE01475E5F4F6F89788DCE0101960E9435
:1004C0006A02EF81F885E00FF11F10822E96E4E0BA
:1004D0000C942505ABE0B0E0E0E7F2E00C94FB04FF
:1004E0006C017B018A01FC0117821682838181FFE6
:1004F000CCC1CE0101963C01F6019381F70193FD39
:10050000859193FF81917F01882309F4BAC18532D7
:1005100039F493FD859193FF81917F01853229F410
:10052000B60190E00E946104E7CF912C212C312C80
:10053000FFE1F315D8F08B3279F038F4803279F09E
:100540008332A1F4232D20611DC08D3261F08033F0
:1005500069F4232D216016C0832D8260382EE32D8F
:10056000E4603E2E2AC0F32DF8601DC037FC2DC07C
:1005700020ED280F2A3040F08E32B9F436FC81C1CC
:10058000232D2064322E19C036FE06C08AE0989EC4
:10059000200D1124922E11C0EAE02E9E200D112470
:1005A000222EF32DF0623F2E08C08C3621F4832DCD
:1005B0008068382E02C0883641F4F70193FD85919A
:1005C00093FF81917F018111B3CF982F9F7D955427
:1005D000933028F40C5F1F4F9FE399830DC083363F
:1005E00031F0833771F0833509F059C021C0F8012B
:1005F000808189830E5F1F4F88248394912C53013F
:1006000013C02801F2E04F0E511CF801A080B18008
:1006100036FE03C0692D70E002C06FEF7FEFC501A9
:100620000E9456044C018201F32DFF773F2E16C025
:10063000280122E0420E511CF801A080B18036FE54
:1006400003C0692D70E002C06FEF7FEFC5010E940B
:100650004B044C01F32DF0683F2E820133FC1BC08C
:10066000822D90E088169906B0F4B60180E290E001
:100670000E9461042A94F4CFF50137FC859137FE7E
:1006800081915F01B60190E00E94610421102A94DB
:1006900021E0821A91088114910471F7E8C0843630
:1006A00011F0893641F5F80137FE07C0608171818C
:1006B000828193810C5F1F4F08C060817181072E7A
:1006C000000C880B990B0E5F1F4FF32DFF763F2E0A
:1006D00097FF09C090958095709561957F4F8F4FDA
:1006E0009F4FF0683F2E2AE030E0A3010E949D0456
:1006F000882E861845C0853731F4232D2F7EB22EE3
:100700002AE030E025C0932D997FB92E8F36C1F0B5
:1007100018F4883579F0B5C0803719F0883721F0A2
:10072000B0C0E92FE061BE2EB4FE0DC0FB2DF46019
:10073000BF2E09C034FE0AC0292F2660B22E06C083
:1007400028E030E005C020E130E002C020E132E0E6
:10075000F801B7FE07C060817181828193810C5FCF
:100760001F4F06C06081718180E090E00E5F1F4FD7
:10077000A3010E949D04882E8618FB2DFF773F2E33
:1007800036FE0DC0232D2E7FA22E891458F434FE80
:100790000BC032FC09C0832D8E7EA82E05C0B82C5C
:1007A000A32C03C0B82C01C0B92CA4FE0FC0FE01BD
:1007B000E80DF11D8081803321F49A2D997EA92EB8
:1007C00009C0A2FE06C0B394B39404C08A2D8678F3
:1007D00009F0B394A3FC11C0A0FE06C0B21488F4C3
:1007E000280C922C9B180EC0B21460F4B60180E263
:1007F00090E00E946104B394F7CFB21418F42B1860
:1008000002C0982C212CA4FE10C0B60180E390E019
:100810000E946104A2FE17C0A1FC03C088E790E01B
:1008200002C088E590E0B6010CC08A2D867859F0A8
:10083000A1FE02C08BE201C080E2A7FC8DE2B601FE
:1008400090E00E946104891438F4B60180E390E0DE
:100850000E9461049A94F7CF8A94F301E80DF11D88
:100860008081B60190E00E9461048110F5CF2220C2
:1008700009F442CEB60180E290E00E9461042A941D
:10088000F6CFF6018681978102C08FEF9FEF2B96FE
:10089000E2E10C941705FC010590615070400110D5
:1008A000D8F7809590958E0F9F1F0895FC01615099
:1008B000704001900110D8F7809590958E0F9F1F82
:1008C00008950F931F93CF93DF93FB01238121FDA5
:1008D00003C08FEF9FEF2CC022FF16C046815781C7
:1008E000248135814217530744F4A081B1819D01D1
:1008F0002F5F3F4F318320838C93268137812F5F79
:100900003F4F3783268314C08B01EC01FB01008429
:10091000F185E02D0995892BE1F6D80116968D9188
:100920009C911797019617969C938E931697CE01DC
:10093000DF91CF911F910F910895FA01AA272830D6
:1009400051F1203181F1E8946F936E7F6E5F7F4F9C
:100950008F4F9F4FAF4FB1E03ED0B4E03CD0670F18
:10096000781F891F9A1FA11D680F791F8A1F911D6B
:10097000A11D6A0F711D811D911DA11D20D009F4BB
:1009800068943F912AE0269F11243019305D3193FD
:10099000DEF6CF010895462F4770405D4193B3E0E6
:1009A0000FD0C9F7F6CF462F4F70405D4A3318F08D
:1009B000495D31FD4052419302D0A9F7EACFB4E03E
:1009C000A6959795879577956795BA95C9F70097F6
:1009D0006105710508959B01AC010A2E0694579597
:1009E000479537952795BA95C9F7620F731F841FEE
:1009F000951FA01D08952F923F924F925F926F9284
:100A00007F928F929F92AF92BF92CF92DF92EF929E
:100A1000FF920F931F93CF93DF93CDB7DEB7CA1B1F
:100A2000DB0B0FB6F894DEBF0FBECDBF09942A884A
:100A3000398848885F846E847D848C849B84AA84F2
:100A4000B984C884DF80EE80FD800C811B81AA817F
:100A5000B981CE0FD11D0FB6F894DEBF0FBECDBF4A
:080A6000ED010895F894FFCFA9
:100A68000102030405060708090E000F486F6C61B0
:040A780020256300D2
:00000001FF
