S01600004949492E204D617472696369616C2E737265634F
S11300000C942A000C9447000C9447000C9447006D
S11300100C9447000C9447000C9447000C94470040
S11300200C9447000C9447000C9447000C94470030
S11300300C9447000C9447000C9447000C94470020
S11300400C9447000C9447000C9447000C94470010
S11300500C94470011241FBECFE5D4E0DEBFCDBF12
S113006010E0A0E6B0E0E0EFF1E002C005900D92F0
S1130070A037B107D9F720E0A0E7B0E001C01D9296
S1130080A637B207E1F70E94D3000C94F6000C9453
S1130090000040E012C0242F30E0F901E059FF4F86
S11300A050812B5F3F4F81E090E002C0880F991F81
S11300B02A95E2F7852B88BB4F5F433060F30895A0
S11300C0FF920F931F93CF93DF93F12C0E9449006B
S11300D00F2D10E081E090E00F2C02C0880F991FD3
S11300E00A94E2F780958BBB0000000024E039C03D
S11300F089B3C22FD0E090E0022E02C09595879577
S11301000A94E2F780FD2CC083ED90E30197F1F7A8
S113011000C0000002C00E94490089B390E00C2E88
S113012002C0959587950A94E2F780FFF4CF83ED9A
S113013090E30197F1F700C0000087E090E08C1B8A
S11301409D0B23E030E0201B310B880F991F880F93
S1130150991F805A9F4FFC01E20FF31F808108C052
S11301602F5F283028F281E08F0D8370F82EAECFF8
S1130170DF91CF911F910F91FF900895E0E7F0E098
S113018012821182108210927300109274001092E5
S113019075008FE08ABB8FEF8BBB84BB15BA81BB24
S11301A012BA87BB08950E94BE000E94600080932B
S11301B075008F3019F40E94BE00F7CFE0E7F0E03D
S11301C09181928390819183808390917400292FEF
S11301D022952F70209373009295907F892B8093A2
S11301E0740085BB8091730082BBDFCFF894FFCF8E
S11301F00102030A0405060B0708090C0E000F0D83
S903017C7F
