:100000000C942A000C943F000C943F000C943F0089
:100010000C943F000C943F000C943F000C943F0064
:100020000C943F000C943F000C943F000C943F0054
:100030000C943F000C943F000C9449000C943F003A
:100040000C943F000C943F000C943F000C94AF00C4
:100050000C943F0011241FBECFE5D4E0DEBFCDBF1E
:1000600010E0A0E6B0E0EEEAF1E002C005900D92EB
:10007000A036B107D9F70E94B9000C94D5000C94B2
:10008000000080E487B910BE8BE986B91ABA1BBAA2
:1000900008951F920F920FB60F9211242F933F9342
:1000A0005F936F937F938F939F93AF93BF9384B12D
:1000B00095B184B195B19C01220F331F220F331FDC
:1000C000820F931F95B984B984B195B16FEF73E036
:1000D0000E94C10075B964B984B195B183309105AE
:1000E00051F030F48130910571F0029749F00EC063
:1000F000069718F00BC080E001C088E0846001C062
:1001000080E0826001C080E0816001C080E097B142
:10011000977085BB911105C0913019F4923009F4A4
:100120009F5F8BEA989F812D11248695282F220F9F
:10013000820F981B892F97B1987F97B997B1892B18
:1001400087B9BF91AF919F918F917F916F915F918F
:100150003F912F910F900FBE0F901F9018951F92F7
:100160000F920FB60F9211240F900FBE0F901F9099
:1001700018950E9441008FEF84BB86B1806486B9D8
:10018000FFCFAA1BBB1B51E107C0AA1FBB1FA617AD
:10019000B70710F0A61BB70B881F991F5A95A9F730
:0E01A00080959095BC01CD010895F894FFCF95
:00000001FF
