S00B00004C43442E7372656346
S11300000C942A000C943F000C943F000C943F0085
S11300100C943F000C943F000C943F000C943F0060
S11300200C943F000C943F000C943F000C943F0050
S11300300C943F000C943F000C943F000C943F0040
S11300400C943F000C943F000C943F000C943F0030
S11300500C943F0011241FBECFE5D4E0DEBFCDBF1A
S113006010E0A0E6B0E0E6E6F3E002C005900D92F1
S1130070A837B107D9F70E94A0010C94B1010C94E0
S11300800000FC01208181E090E002C0880F991FEC
S11300906A95E2F782230895FC01408121E030E073
S11300A002C0220F331F6A95E2F7242B20830895A0
S11300B0FC01908121E030E002C0220F331F6A95D9
S11300C0E2F7209529232083089585BB64E085E326
S11300D090E00E94580065E085E390E00E9458009B
S11300E066E085E390E00E944C0083EC99E0019780
S11300F0F1F700C0000066E085E390E00E9458003C
S1130100089584B3807F84BB64E085E390E00E941B
S1130110580065E085E390E00E944C0066E085E3CA
S113012090E00E944C0083EC99E00197F1F700C045
S1130130000066E085E390E00E94580063E083E3FA
S113014090E00E944100811115C093E09A95F1F767
S1130150000066E085E390E00E944C0083EC99E0A7
S11301600197F1F700C0000066E085E390E00E948B
S11301705800D4CF66E085E390E00E944C0083EC05
S113018099E00197F1F700C0000066E085E390E094
S11301900E94580064E085E390E00E94580065E006
S11301A085E390E00E94580084B38F6784BB089570
S11301B0CF93C82F82958F7085BB64E085E390E070
S11301C00E944C0065E085E390E00E94580066E0E0
S11301D085E390E00E944C0083EC99E00197F1F7ED
S11301E000C0000066E085E390E00E945800CF70F4
S11301F0C5BB64E085E390E00E944C0065E085E3C4
S113020090E00E94580066E085E390E00E944C0074
S113021083EC99E00197F1F700C0000066E085E304
S113022090E00E94580064E085E390E00E9458004A
S11302300E948100CF910895CF93DF93FC0103C006
S11302400E94D800FE01EF01219680818111F8CF30
S1130250DF91CF910895CF93C82F82958F7085BB7E
S113026064E085E390E00E94580065E085E390E057
S11302700E94580066E085E390E00E944C0083EC05
S113028099E00197F1F700C0000066E085E390E093
S11302900E945800CF70C5BB64E085E390E00E94E3
S11302A0580065E085E390E00E94580066E085E32D
S11302B090E00E944C0083EC99E00197F1F700C0B4
S11302C0000066E085E390E00E9458000E948100EF
S11302D0CF9108958FE784BB85EA9EE00197F1F7FB
S11302E000C0000083E00E94650081EE94E0019765
S11302F0F1F700C0000083E00E94650091E29A9546
S1130300F1F7000083E00E94650081E28A95F1F72D
S1130310000082E00E94650091E29A95F1F70000E6
S113032088E20E942B0188E00E942B0181E00E9458
S11303302B0186E00E942B018CE00E942B01089582
S11303400E946A0180E80E942B0180E690E00E94EE
S11303501C0180EC0E942B018BE690E00E941C01A2
S1090360FFCFF894FFCF6B
S1130366686F6C61206D756E646F006164696F738C
S10B0376206D756E646F000038
S9030000FC
