:100000000C942A000C943C000C943C000C943C0092
:100010000C943C000C943C000C943C000C943C0070
:100020000C943C000C943C000C943C000C943C0060
:100030000C943C000C943C000C943C000C943C0050
:100040000C943C000C943C000C943C000C943E003E
:100050000C943C0011241FBECFE5D4E0DEBFCDBF21
:1000600020E0A0E6B0E001C01D92A236B207E1F7A1
:100070000E9494010C94D7010C9400001F920F92DF
:100080000FB60F9211248F93809160008F5F809341
:1000900060008A3019F481E0809361008F910F90A5
:1000A0000FBE0F901F901895FC01408121E030E0B9
:1000B00002C0220F331F6A95E2F7242B2083089594
:1000C000FC01908121E030E002C0220F331F6A95CD
:1000D000E2F7209529232083089585BB64E085E31A
:1000E00090E00E94600065E085E390E00E9460007F
:1000F00066E085E390E00E94540083EC99E001976C
:10010000F1F700C0000066E085E390E00E94600027
:10011000089584B3807F84BB64E085E390E00E940F
:10012000600065E085E390E00E94540066E085E3AE
:1001300090E00E94540083EC99E00197F1F700C031
:10014000000066E085E390E00E9460009B9915C086
:1001500093E09A95F1F7000066E085E390E00E9455
:10016000540083EC99E00197F1F700C0000066E0CD
:1001700085E390E00E946000D9CF66E085E390E0DF
:100180000E94540083EC99E00197F1F700C0000051
:1001900066E085E390E00E94600064E085E390E023
:1001A0000E94600065E085E390E00E94600084B3F7
:1001B0008F6784BB0895CF93C82F82958F7085BBBE
:1001C00064E085E390E00E94540065E085E390E000
:1001D0000E94600066E085E390E00E94540083EC9A
:1001E00099E00197F1F700C0000066E085E390E038
:1001F0000E946000CF70C5BB64E085E390E00E9480
:10020000540065E085E390E00E94600066E085E3CD
:1002100090E00E94540083EC99E00197F1F700C050
:10022000000066E085E390E00E94600064E085E302
:1002300090E00E9460000E948900CF910895CF93C2
:10024000C82F82958F7085BB64E085E390E00E94A3
:10025000600065E085E390E00E94600066E085E371
:1002600090E00E94540083EC99E00197F1F700C000
:10027000000066E085E390E00E946000CF70C5BB9F
:1002800064E085E390E00E94600065E085E390E033
:100290000E94600066E085E390E00E94540083ECD9
:1002A00099E00197F1F700C0000066E085E390E077
:1002B0000E9460000E948900CF9108958FE784BB5F
:1002C00085EA9EE00197F1F700C0000083E00E94FC
:1002D0006D0081EE94E00197F1F700C0000083E02B
:1002E0000E946D0091E29A95F1F7000083E00E9470
:1002F0006D0081E28A95F1F7000082E00E946D00B6
:1003000091E29A95F1F7000088E20E941F0188E0CF
:100310000E941F0181E00E941F0186E00E941F01D0
:100320008CE00E941F01089578940E945E018EEF78
:100330008ABB8FEF8BBB81E68CBF82E089BF83E0F5
:1003400088BFCFEFD0E8C899FECF809161008823A5
:1003500019F0DF5FC0E00EC081E08C0FCFE48C9F0E
:10036000C12D1124C695C695C6959AE1C99F8019DD
:100370001124C82F8D2F0E941F0181E48C0F0E9431
:10038000DB0083ED90E30197F1F700C00000C89B0C
:10039000FECF83ED90E30197F1F700C000001092CB
:1003A00061001092600012BE8DE083BFCCCFF89444
:0203B000FFCF7D
:00000001FF
