:020000020000FC
:100000000C942A000C9497010C9498010C9499017B
:100010000C949A010C949B010C949C010C949D01EE
:100020000C949E010C949F010C94A0010C94A101CE
:100030000C94A2010C94A3010C94A4010C94A501AE
:100040000C94A6010C94A7010C94A8010C94A9018E
:100050000C94AA0104E00EBF0FE50DBF78940FEFDA
:1000600007BB04BB01BB0FE00ABB002705BB02BBFB
:10007000002702BF04E10CBF0AE603BF44270FEFCD
:100080000BBBD99800000000CC9B37C0CD9B60C053
:10009000CE9B82C0CF9B8CC0D99ADA98000000001A
:1000A000CC9B1FC0CD9B41C0CE9B6AC0CF9B86C05E
:1000B000DA9ADB9800000000CC9B07C0CD9B29C0DA
:1000C000CE9B52C0CF9B8CC0DACF1CD1CC9BFECF35
:1000D00019D1439558E04130A1F14230A9F143E0F4
:1000E000CECF10D1CC9BFECF0DD1439554E0413003
:1000F00041F1423049F143E0C2CF04D1CC9BFECF65
:1001000001D143955CE04130E1F04230E9F043E059
:10011000B6CFF8D0CD9BFECFF5D0439552E041301D
:1001200081F0423089F043E0AACFECD0CD9BFECFE6
:10013000E9D043955AE0413021F0423029F043E0C4
:100140009ECF652F52BB9BCF65BB52BB43E097CF81
:10015000D9D0CD9BFECFD6D0439556E0413089F320
:10016000423091F343E08BCFCDD0CE9BFECFCAD0AF
:1001700043955EE0413029F3423031F343E07FCFD5
:10018000C1D0CE9BFECFBED0439551E04130C9F2E5
:100190004230D1F243E073CFB5D0CE9BFECFB2D088
:1001A000439559E0413069F2423071F243E067CF44
:1001B000A9D0CF9BFECFA6D00C942A00A3D0CF9B72
:1001C000FECFA0D0439550E0413021F0423021F0E5
:1001D00043E055CF0C94A1000C94A4000C943F0074
:1001E00091D0CF9BFECF8ED04330C1F7583091F0E5
:1001F000543099F05C30A1F05230A9F05A30B1F08F
:100200005630B9F05E30C1F05130C9F05930D1F0FC
:100210000C94250151E00C94250152E00C94250129
:1002200053E00C94250154E00C94250155E00C9406
:10023000250156E00C94250157E00C94250158E067
:100240000C94250159E00C942501683091F064303C
:1002500099F06C30A1F06230A9F06A30B1F06630EC
:10026000B9F06E30C1F06130C9F06930D1F00C9452
:10027000250161E00C94540162E00C94540163E0A8
:100280000C94540164E00C94540165E00C94540106
:1002900066E00C94540167E00C94540168E00C94FF
:1002A000540169E00C9454017AE0679F602D650F5A
:1002B0006A3A18F56639F8F46238D0F46E36B0F45C
:1002C0006A3590F4663470F4623350F46E3130F471
:1002D0006A3010F494E113C095E111C096E10FC0AB
:1002E00097E10DC098E10BC099E109C09AE107C000
:1002F0009BE105C0C4CE9CE102C09DE100C09CBF53
:100300000C943F0015EA29EC2A95F1F71A95D9F7D4
:1003100013E01A95F1F70000089513E624E62A95F4
:10032000F1F71A95D9F711E01A95F1F70895189594
:100330001895189518951895189518951895189555
:100340001895189518951895189518951895189545
:06035000189518951895A0
:00000001FF
