:100000000C942A000C9478000C9447000C94470040
:100010000C9447000C9447000C9447000C94470044
:100020000C9447000C9447000C9447000C94470034
:100030000C9447000C9447000C9447000C94470024
:100040000C9447000C9447000C9447000C94470014
:100050000C94470011241FBECFE5D4E0DEBFCDBF16
:1000600010E0A0E6B0E0E0E6F3E002C005900D92FB
:10007000A436B107D9F720E0A4E6B0E001C01D9294
:10008000A836B207E1F70E94B2000C94AE010C94BE
:100090000000FC010FB6F894609164007091650057
:1000A00080916600909167000FBE309721F06083C9
:1000B0007183828393830895833071F028F48130B3
:1000C00049F0823099F010C0853051F038F0863018
:1000D00049F00AC088E0089589E4089583E6089508
:1000E0008BE6089587E7089580E0089582E10895FA
:1000F0001F920F920FB60F9211242F933F934F939D
:100100005F936F937F938F939F93AF93BF93EF937F
:10011000FF9383ED90E30197F1F700C00000829B0D
:10012000FECF83ED90E30197F1F700C000000E943D
:100130003B0166E070E00E94C7008F5F0E945C0098
:100140008BBBFF91EF91BF91AF919F918F917F9169
:100150006F915F914F913F912F910F900FBE0F9034
:100160001F9018958FEF8ABB1BBA8BEF81BB12BA19
:10017000789480EE8ABF82E085BF80E48BBF80E008
:1001800090E00E944900CB010E944001FFCF97FB05
:10019000072E16F4009407D077FD09D00E94DB00EB
:1001A00007FC05D03EF4909581959F4F089570957A
:1001B00061957F4F0895AA1BBB1B51E107C0AA1F81
:1001C000BB1FA617B70710F0A61BB70B881F991FF8
:1001D0005A95A9F780959095BC01CD0108958F920D
:1001E0009F92AF92BF92CF92DF92EF92FF92CF9306
:1001F000DF93EC01688179818A819B8161157105AA
:100200008105910521F464E279ED8BE597E02DE11C
:1002100033EF41E050E00E944B0149015A019B013C
:10022000AC01A7EAB1E40E946A016B017C01ACEE6B
:10023000B4EFA50194010E947801DC01CB018C0D83
:100240009D1DAE1DBF1DB7FF03C00197A109B0489A
:1002500088839983AA83BB839F77DF91CF91FF9097
:10026000EF90DF90CF90BF90AF909F908F900895C8
:100270000E94EF00089580E690E00E94EF0008954C
:10028000A0E0B0E08093600090936100A0936200D2
:10029000B09363000895052E97FB1EF400940E940E
:1002A000620157FD07D00E947D0107FC03D04EF488
:1002B0000C94620150954095309521953F4F4F4FDA
:1002C0005F4F089590958095709561957F4F8F4F02
:1002D0009F4F08950E949F01A59F900DB49F900D80
:1002E000A49F800D911D11240895B7FF0C946A01FD
:1002F0000E946A01821B930B0895A1E21A2EAA1B89
:10030000BB1BFD010DC0AA1FBB1FEE1FFF1FA217C5
:10031000B307E407F50720F0A21BB30BE40BF50BC2
:10032000661F771F881F991F1A9469F7609570954B
:10033000809590959B01AC01BD01CF010895A29FCE
:10034000B001B39FC001A39F700D811D1124911DA9
:10035000B29F700D811D1124911D0895F894FFCF57
:040360000100000098
:00000001FF
